{
  "contractName": "Transactions",
  "abi": [
    {
      "anonymous": false,
      "inputs": [
        {
          "indexed": false,
          "internalType": "address",
          "name": "sender",
          "type": "address"
        },
        {
          "indexed": false,
          "internalType": "address",
          "name": "receiver",
          "type": "address"
        },
        {
          "indexed": false,
          "internalType": "uint256",
          "name": "amount",
          "type": "uint256"
        },
        {
          "indexed": false,
          "internalType": "string",
          "name": "message",
          "type": "string"
        },
        {
          "indexed": false,
          "internalType": "uint256",
          "name": "timestamp",
          "type": "uint256"
        },
        {
          "indexed": false,
          "internalType": "string",
          "name": "keyword",
          "type": "string"
        }
      ],
      "name": "Transfer",
      "type": "event"
    },
    {
      "inputs": [
        {
          "internalType": "uint256",
          "name": "",
          "type": "uint256"
        }
      ],
      "name": "transactions",
      "outputs": [
        {
          "internalType": "address",
          "name": "sender",
          "type": "address"
        },
        {
          "internalType": "address",
          "name": "receiver",
          "type": "address"
        },
        {
          "internalType": "uint256",
          "name": "amount",
          "type": "uint256"
        },
        {
          "internalType": "string",
          "name": "message",
          "type": "string"
        },
        {
          "internalType": "uint256",
          "name": "timestamp",
          "type": "uint256"
        },
        {
          "internalType": "string",
          "name": "keyword",
          "type": "string"
        }
      ],
      "stateMutability": "view",
      "type": "function",
      "constant": true
    },
    {
      "inputs": [
        {
          "internalType": "address payable",
          "name": "receiver",
          "type": "address"
        },
        {
          "internalType": "uint256",
          "name": "amount",
          "type": "uint256"
        },
        {
          "internalType": "string",
          "name": "message",
          "type": "string"
        },
        {
          "internalType": "string",
          "name": "keyword",
          "type": "string"
        }
      ],
      "name": "addToBlockchain",
      "outputs": [],
      "stateMutability": "nonpayable",
      "type": "function"
    },
    {
      "inputs": [],
      "name": "getAllTransactions",
      "outputs": [
        {
          "components": [
            {
              "internalType": "address",
              "name": "sender",
              "type": "address"
            },
            {
              "internalType": "address",
              "name": "receiver",
              "type": "address"
            },
            {
              "internalType": "uint256",
              "name": "amount",
              "type": "uint256"
            },
            {
              "internalType": "string",
              "name": "message",
              "type": "string"
            },
            {
              "internalType": "uint256",
              "name": "timestamp",
              "type": "uint256"
            },
            {
              "internalType": "string",
              "name": "keyword",
              "type": "string"
            }
          ],
          "internalType": "struct Transactions.TransferStruct[]",
          "name": "",
          "type": "tuple[]"
        }
      ],
      "stateMutability": "view",
      "type": "function",
      "constant": true
    },
    {
      "inputs": [],
      "name": "getTransactionCount",
      "outputs": [
        {
          "internalType": "uint256",
          "name": "",
          "type": "uint256"
        }
      ],
      "stateMutability": "view",
      "type": "function",
      "constant": true
    }
  ],
  "bytecode": "0x608060405234801561001057600080fd5b50610ee8806100206000396000f3fe608060405234801561001057600080fd5b506004361061004c5760003560e01c806327506f53146100515780632e7700f01461006f5780639ace38c21461008d578063cc2d7ead146100c2575b600080fd5b6100596100de565b60405161006691906109fe565b60405180910390f35b610077610321565b6040516100849190610a2f565b60405180910390f35b6100a760048036038101906100a29190610a80565b61032a565b6040516100b996959493929190610b06565b60405180910390f35b6100dc60048036038101906100d79190610c18565b6104c6565b005b60606001805480602002602001604051908101604052809291908181526020016000905b8282101561031857838290600052602060002090600602016040518060c00160405290816000820160009054906101000a900473ffffffffffffffffffffffffffffffffffffffff1673ffffffffffffffffffffffffffffffffffffffff1673ffffffffffffffffffffffffffffffffffffffff1681526020016001820160009054906101000a900473ffffffffffffffffffffffffffffffffffffffff1673ffffffffffffffffffffffffffffffffffffffff1673ffffffffffffffffffffffffffffffffffffffff168152602001600282015481526020016003820180546101eb90610cee565b80601f016020809104026020016040519081016040528092919081815260200182805461021790610cee565b80156102645780601f1061023957610100808354040283529160200191610264565b820191906000526020600020905b81548152906001019060200180831161024757829003601f168201915b505050505081526020016004820154815260200160058201805461028790610cee565b80601f01602080910402602001604051908101604052809291908181526020018280546102b390610cee565b80156103005780601f106102d557610100808354040283529160200191610300565b820191906000526020600020905b8154815290600101906020018083116102e357829003601f168201915b50505050508152505081526020019060010190610102565b50505050905090565b60008054905090565b6001818154811061033a57600080fd5b90600052602060002090600602016000915090508060000160009054906101000a900473ffffffffffffffffffffffffffffffffffffffff16908060010160009054906101000a900473ffffffffffffffffffffffffffffffffffffffff16908060020154908060030180546103af90610cee565b80601f01602080910402602001604051908101604052809291908181526020018280546103db90610cee565b80156104285780601f106103fd57610100808354040283529160200191610428565b820191906000526020600020905b81548152906001019060200180831161040b57829003601f168201915b50505050509080600401549080600501805461044390610cee565b80601f016020809104026020016040519081016040528092919081815260200182805461046f90610cee565b80156104bc5780601f10610491576101008083540402835291602001916104bc565b820191906000526020600020905b81548152906001019060200180831161049f57829003601f168201915b5050505050905086565b60016000808282546104d89190610d4e565b9250508190555060016040518060c001604052803373ffffffffffffffffffffffffffffffffffffffff1681526020018873ffffffffffffffffffffffffffffffffffffffff16815260200187815260200186868080601f016020809104026020016040519081016040528093929190818152602001838380828437600081840152601f19601f82011690508083019250505050505050815260200142815260200184848080601f016020809104026020016040519081016040528093929190818152602001838380828437600081840152601f19601f82011690508083019250505050505050815250908060018154018082558091505060019003906000526020600020906006020160009091909190915060008201518160000160006101000a81548173ffffffffffffffffffffffffffffffffffffffff021916908373ffffffffffffffffffffffffffffffffffffffff16021790555060208201518160010160006101000a81548173ffffffffffffffffffffffffffffffffffffffff021916908373ffffffffffffffffffffffffffffffffffffffff16021790555060408201518160020155606082015181600301908051906020019061069f929190610716565b506080820151816004015560a08201518160050190805190602001906106c6929190610716565b5050507f416cfa4330a4565f45c2fd2dd4826a83a37443aba2ce6f79477c7355afac35fa3387878787428888604051610706989796959493929190610e3f565b60405180910390a1505050505050565b82805461072290610cee565b90600052602060002090601f016020900481019282610744576000855561078b565b82601f1061075d57805160ff191683800117855561078b565b8280016001018555821561078b579182015b8281111561078a57825182559160200191906001019061076f565b5b509050610798919061079c565b5090565b5b808211156107b557600081600090555060010161079d565b5090565b600081519050919050565b600082825260208201905092915050565b6000819050602082019050919050565b600073ffffffffffffffffffffffffffffffffffffffff82169050919050565b6000610810826107e5565b9050919050565b61082081610805565b82525050565b6000819050919050565b61083981610826565b82525050565b600081519050919050565b600082825260208201905092915050565b60005b8381101561087957808201518184015260208101905061085e565b83811115610888576000848401525b50505050565b6000601f19601f8301169050919050565b60006108aa8261083f565b6108b4818561084a565b93506108c481856020860161085b565b6108cd8161088e565b840191505092915050565b600060c0830160008301516108f06000860182610817565b5060208301516109036020860182610817565b5060408301516109166040860182610830565b506060830151848203606086015261092e828261089f565b91505060808301516109436080860182610830565b5060a083015184820360a086015261095b828261089f565b9150508091505092915050565b600061097483836108d8565b905092915050565b6000602082019050919050565b6000610994826107b9565b61099e81856107c4565b9350836020820285016109b0856107d5565b8060005b858110156109ec57848403895281516109cd8582610968565b94506109d88361097c565b925060208a019950506001810190506109b4565b50829750879550505050505092915050565b60006020820190508181036000830152610a188184610989565b905092915050565b610a2981610826565b82525050565b6000602082019050610a446000830184610a20565b92915050565b600080fd5b600080fd5b610a5d81610826565b8114610a6857600080fd5b50565b600081359050610a7a81610a54565b92915050565b600060208284031215610a9657610a95610a4a565b5b6000610aa484828501610a6b565b91505092915050565b610ab681610805565b82525050565b600082825260208201905092915050565b6000610ad88261083f565b610ae28185610abc565b9350610af281856020860161085b565b610afb8161088e565b840191505092915050565b600060c082019050610b1b6000830189610aad565b610b286020830188610aad565b610b356040830187610a20565b8181036060830152610b478186610acd565b9050610b566080830185610a20565b81810360a0830152610b688184610acd565b9050979650505050505050565b6000610b80826107e5565b9050919050565b610b9081610b75565b8114610b9b57600080fd5b50565b600081359050610bad81610b87565b92915050565b600080fd5b600080fd5b600080fd5b60008083601f840112610bd857610bd7610bb3565b5b8235905067ffffffffffffffff811115610bf557610bf4610bb8565b5b602083019150836001820283011115610c1157610c10610bbd565b5b9250929050565b60008060008060008060808789031215610c3557610c34610a4a565b5b6000610c4389828a01610b9e565b9650506020610c5489828a01610a6b565b955050604087013567ffffffffffffffff811115610c7557610c74610a4f565b5b610c8189828a01610bc2565b9450945050606087013567ffffffffffffffff811115610ca457610ca3610a4f565b5b610cb089828a01610bc2565b92509250509295509295509295565b7f4e487b7100000000000000000000000000000000000000000000000000000000600052602260045260246000fd5b60006002820490506001821680610d0657607f821691505b602082108103610d1957610d18610cbf565b5b50919050565b7f4e487b7100000000000000000000000000000000000000000000000000000000600052601160045260246000fd5b6000610d5982610826565b9150610d6483610826565b9250827fffffffffffffffffffffffffffffffffffffffffffffffffffffffffffffffff03821115610d9957610d98610d1f565b5b828201905092915050565b6000819050919050565b6000610dc9610dc4610dbf846107e5565b610da4565b6107e5565b9050919050565b6000610ddb82610dae565b9050919050565b6000610ded82610dd0565b9050919050565b610dfd81610de2565b82525050565b82818337600083830152505050565b6000610e1e8385610abc565b9350610e2b838584610e03565b610e348361088e565b840190509392505050565b600060c082019050610e54600083018b610aad565b610e61602083018a610df4565b610e6e6040830189610a20565b8181036060830152610e81818789610e12565b9050610e906080830186610a20565b81810360a0830152610ea3818486610e12565b9050999850505050505050505056fea2646970667358221220323b7487661dceae838628eca7ee718066544dbf2884edddd8ed3577495afdfe64736f6c634300080d0033",
  "immutableReferences": {},
  "source": "// SPDX-License-Identifier: UNLICENSED\r\n\r\npragma solidity ^0.8.13;\r\n\r\ncontract Transactions {\r\n    \r\n    struct TransferStruct {\r\n        address sender;\r\n        address receiver;\r\n        uint amount;\r\n        string message;\r\n        uint timestamp;\r\n        string keyword;\r\n    }\r\n\r\n    uint private transactionCount;\r\n    TransferStruct[] public transactions;\r\n\r\n    event Transfer(address sender, address receiver, uint amount, \r\n                   string message, uint timestamp, string keyword);\r\n\r\n    function addToBlockchain(address payable receiver, uint amount, \r\n                             string calldata message, string calldata keyword) public {\r\n        \r\n        transactionCount += 1;\r\n        transactions.push(TransferStruct(\r\n            msg.sender,\r\n            receiver,\r\n            amount,\r\n            message,\r\n            block.timestamp,\r\n            keyword\r\n        ));\r\n\r\n        emit Transfer(msg.sender, receiver, amount, message, block.timestamp, keyword);\r\n    }\r\n\r\n    function getAllTransactions() public view returns(TransferStruct[] memory) {\r\n        return transactions;\r\n    }\r\n\r\n    function getTransactionCount() public view returns(uint) {\r\n        return transactionCount;\r\n    }\r\n\r\n\r\n}",
  "sourcePath": "C:\\Users\\nimish\\Programs\\Courses\\Web3\\project-4-transfer\\contract\\contracts\\Transactions.sol",
  "compiler": {
    "name": "solc",
    "version": "0.8.13+commit.abaa5c0e.Emscripten.clang"
  },
  "schemaVersion": "3.4.7",
  "updatedAt": "2022-08-04T17:13:38.284Z",
  "networkType": "ethereum",
  "devdoc": {
    "kind": "dev",
    "methods": {},
    "version": 1
  },
  "userdoc": {
    "kind": "user",
    "methods": {},
    "version": 1
  }
}